:10000000C02B02205D930200819602001171030053
:100010006B9302006B9302006B9302006B930200E0
:100020000000000000000000000000006B930200D0
:100030006B9302000000000053700300C1D1030065
:10004000A9D40200D9D3020065D50200AFD50200C1
:1000500001D902005BD90200699D0200F9AB0200E0
:10006000419E0200F9C90200E9C8020087BA0200F5
:10007000D3CC020073CC020051CD020099CD020016
:10008000D3CC020073CC020051CD020099CD020006
:10009000739A0200719B0200219C0200719B020076
:1000A000219C0200D3CC020073CC020051CD02008F
:1000B00099CD02002DBE02002DBE02002DBE020011
:1000C0002DBE0200D3CC020073CC020051CD020041
:1000D00099CD0200419F0200AFDC020007DD020063
:1000E0000000000000000000000000000000000010
:1000F0000000000000000000000000000000000000
:1001000000000000000000000000000000000000EF
:1001100000000000000000000000000000000000DF
:10040000FFFFFFFFFFFDFFFFFCFFFFFFFFFFFFFF01
:10041000FCFFFFFFFFFFFFFFFCFFFF00FFFFFF00F0
:10042000FCFF0F20FFFF0F20FCFF7F40FFFF7F40FE
:10043000FCFF0D40FFFF0D40FFFFFFFFFFFFFFFF31
:10044000FFFFFFFFFFFFFFFFFFFFFFFFFFFFFFFFBC
:10045000FFFFFFFFFFFFFFFFFFFFFFFFFFFFFFFFAC
:10046000FFFFFFFFFFFFFFFFFFFFFFFFFFFFFFFF9C
:10047000FFFFFFFFFFFFFFFFFFFFFFFFFFFFFFFF8C
:10048000FFFFFFFFFFFFFFFFFFFFFFFFFFFFFFFF7C
:10049000FFFFFFFFFFFFFFFFFFFFFFFFFFFFFFFF6C
:1004A000FFFFFFFFFFFFFFFFFFFFFFFFFFFFFFFF5C
:1004B000FFFFFFFFFFFFFFFFFFFFFFFFFFFFFFFF4C
:1004C000FFFFFFFFFFFFFFFFFFFFFFFFFFFFFFFF3C
:1004D000FFFFFFFFFFFFFFFFFFFFFFFFFFFFFFFF2C
:1004E000FFFFFFFFFFFFFFFFFFFFFFFFFFFFFFFF1C
:1004F000FFFFFFFFFFFFFFFFFFFFFFFFFFFFFFFF0C
:1005000010B5054C237833B9044B13B10448AFF34D
:1005100000800123237010BDC017FE1F00000000E3
:10052000BC38050008B5034B1BB103490348AFF3C2
:10053000008008BD00000000C417FE1FBC38050085
:10054000F0B400B581B084460C1C151C012D25DBD0
:10055000002620680434012D1ED021680434022DA9
:100560001AD022680434032D16D023680434042DD5
:1005700012D0043DAE000727F619BE4304366F467D
:10058000BF1BBD469646002D05D0226804343A6054
:100590000437013DF7E77246E047B54401B008BCB7
:1005A000F0BC9E46704700BF80B485B000AF786055
:1005B00039603B68013BFB607A68FB681A44FB6862
:1005C000DB43134018461437BD465DF8047B704783
:1005D00080B584B000AFF860B9607A60FB68002B2A
:1005E00005D07B68044AB968F8683FF01FFB00BF7C
:1005F0001037BD4680BD00BFD898040080B586B0D6
:1006000000AFC7E902017A603B60D7E90223B2F18B
:10061000FF3F73F1000307D2BB68184605F0A8FA44
:1006200078617B69002B11D17B68002B04D00D49C8
:10063000786809F01FF907E03B68002B04D0094AED
:10064000396A3868FFF7C4FF002306E0BB681A4622
:10065000002178693EF0C8FE7B6918461837BD4610
:1006600080BD00BFDC98040080B582B000AF786028
:100670000B46FB707B681B88002B03D07B681B88B4
:10068000022B03D17B685B88012B07D91D4B00220D
:100690000021012028F050F900232FE07B681B88FF
:1006A000022B16D17B681B7C7F2B0AD17B685B7C7D
:1006B0001A46FB78002B01D07E2300E07F23934273
:1006C00007D0104B00220021012028F035F900232B
:1006D00014E07B685B88002B0FD07B681B881A4670
:1006E0007B6813441B7C7F2B07D0064B0022002124
:1006F000012028F021F9002300E0012318460837E3
:10070000BD4680BDF49804002DE9B04FA0B002AF03
:1007100078613961FA6000233B650023FB640023A4
:100720003B6707F11C0300221A605A609A6000239D
:10073000FB664FF000024FF00003C7E918230123C6
:1007400087F85730002387F84B30786908F0EEFFC0
:10075000F864FB6C002B05D19D49786909F08AF893
:10076000002330E19B49786908F04EFD78677B6F84
:10077000002B15D19849786908F046FD78677B6FA2
:10078000002B0DD19549786908F03EFD78677B6FA5
:10079000002B05D19249786909F06CF8002312E129
:1007A0007B691B68002B03D17B6F1B7887F8573060
:1007B00097F85730002B05D08A49786909F05AF824
:1007C000002300E17B691B687B64796C786F08F01B
:1007D000FCFC38653B6D002B07D1834B00220021C8
:1007E000012028F0A9F80023EDE097F84B301946D6
:1007F000386DFFF739FF034683F00103DBB2002BAE
:1008000005D07A49786909F035F80023DBE03B6DC3
:100810001B88002B00F0B0800023FB650FE0FB6D10
:100820009B00FA6813441B6818463FF089FC024697
:10083000FB6E13440133FB66FB6D0133FB65FA6D00
:100840003B699A42EBDB0421F86EFFF7ADFEF866D8
:10085000FB6E0022984691463B69DA171C46154606
:100860004FF000024FF00003AB0043EA9473A20084
:1008700018EB020A49EB030BC7E90EABD7E90E23CD
:10088000B2F1FF3F73F100030DD207F1180300939B
:10089000D7E90E23786909F06FF8C7E91801D7E99D
:1008A0001823134305D15249786908F0E3FF002368
:1008B00089E0BB69BB65BA6DFB6E13447B63BB6BA0
:1008C000BA6D13443B630023FB6545E03A6BBB6D97
:1008D000D31A1D46FB6D9B00FA6813441C68FB6D20
:1008E0009B00FA6813441B6818463FF029FC034636
:1008F000013322462946B86D27F0B0FFF862FB6A43
:10090000002B0CBF01230023DBB2DBB200223B60D3
:100910007A60384B0093EA23374AD7E9000127F081
:100920006FFF3A6EBB69B96DCB1A1846FB6D9B0021
:10093000796B0B4402441A60FB6D9B00FA68134408
:100940001B6818463FF0FCFB03460133BA6D1344A5
:10095000BB65FB6D0133FB65FA6D3B699A42B5DB04
:100960003B69FB6102233B67796B786905F06CFAA0
:1009700002460B4613463B6207F11C033A6F796F40
:10098000F86C08F055FC034687F82B3097F82B30AD
:10099000002B0DD03B6D5B88002B09D03B69002BF1
:1009A00006DDFB68002B03D0FB691A46FB681A6062
:1009B000D7E91823134304D0D7E91823786908F03E
:1009C000F8FF97F82B3018467837BD46BDE8B08F52
:1009D0003499040058990400609904007499040043
:1009E0007C990400C8990400E4990400049A040066
:1009F000DC980400689A04002C9A040080B586B044
:100A000000AFF860B9607A607A68B968F868FFF793
:100A10007BFE0346FB75FB7D002B08D0F86808F0D1
:100A200055FF0346002B0CBF01230023FB75FB7D04
:100A300018461837BD4680BD2DE9F04FDFB002AF34
:100A400007F5B874A4F59274206007F5B870A0F5A6
:100A50009470016007F5B871A1F596710A6007F509
:100A6000B872A2F5987213600023C7F858310023BA
:100A7000C7F854310023C7F86C310023C7F8503150
:100A80000023C7F8643107F5B873A3F596731B68A4
:100A9000DB43DB0FDBB2DBB200229A469346B94B55
:100AA00000934FF4BB73B84A5046594627F0A8FE4E
:100AB00007F5B873A3F596731B68019307F5B87330
:100AC000A3F594731B680093B04B40F27712AE49C4
:100AD000032027F031FF07F5B873A3F5947207F5EB
:100AE000B873A3F592731168186808F08DFBC7F806
:100AF0004C01D7F84C31002B16D107F5B873A3F58C
:100B0000947307F194001B68A14A80213FF08EF88E
:100B100007F1940207F5B873A3F5927311461868AC
:100B200008F0A8FE00F04CBC07F5B873A3F592736B
:100B30001B681B68C7F84831D7F848311946D7F801
:100B40004C0108F042FBC7F85801D7F85831002B88
:100B500008D1904B00220021012027F0EDFE002358
:100B600000F04CBCD7F858311B881A4607F5B8730B
:100B7000A3F596731B689A4209D007F5B873A3F5DD
:100B800092738549186808F075FE00F019BC07F5E6
:100B9000B873A3F59273186808F0C8FDC7F854013C
:100BA000D7F85431002B09D107F5B873A3F5927328
:100BB0007A49186808F05EFE00F002BCD7F8583198
:100BC0009B88C7F84431D7F85831DB881A46D7F8E4
:100BD0004431934238BF1346C7F85031D7F85031EB
:100BE000022B38BF02230022984691464FF00002A4
:100BF0004FF000034FEA890343EA98734FEA8802F3
:100C0000C7E94E23D7F8383100221D46164607F5AE
:100C1000B873A3F59272002300930023126828464C
:100C20003146FFF7EBFCC7F86C01D7F86C31002BAD
:100C300000F0C3830023C7F860310023C7F85C319C
:100C4000C6E20023C7F89030D7F860319A0007F564
:100C5000B873A3F598731B6813441B68002B14BF6B
:100C600001230023DBB2DBB20022BB63FA634C4BEF
:100C700000934FF4D873444AD7E90E0127F0C0FD22
:100C8000D7F860319A0007F5B873A3F598731B681D
:100C900013441B681B78002B12D107F19400D7F87E
:100CA0006031404A80213EF0C1FF07F1940207F510
:100CB000B873A3F592731146186808F0DBFD7FE363
:100CC000D7F85821D7F86031134410331B787C3B98
:100CD000032B00F2408201A252F823F0490F0000DA
:100CE000A90D0000270D0000ED0C0000D7F86031C1
:100CF0009A0007F5B873A3F598731B681344186836
:100D0000D7F85C21531CC7F85C3113469A00D7F81A
:100D10006C319C1807F190030022194640F098FEB0
:100D20000346236023E2D7F860319A0007F5B873D1
:100D3000A3F598731B681344186807F19003002209
:100D4000194640F061FF02460B46C7E92223D7F857
:100D50005C21531CC7F85C3113469A00D7F86C31FC
:100D60001A44D7F888301360D7F85C21531CC7F8B1
:100D70005C3113469A00D7F86C311A44D7F88C309E
:100D80001360F4E1749A04002C9A0400809A040021
:100D9000A89A0400E4990400C49A04003499040059
:100DA000E49A0400F49A0400D7F860319A0007F539
:100DB000B873A3F598731B6813441A6807F190037E
:100DC0001946104640F0A4FCF0EE407AC7ED217AB7
:100DD00097ED217AD7ED217AB4EE677AF1EE10FA29
:100DE000C0F18680D7F860319A0007F5B873A3F593
:100DF00098731B6813441B681B782D2B32D1D7F8CE
:100E00008430C7F88030A44B1B78012B06D197F8AB
:100E1000833043F0800387F8833005E097F8803013
:100E200043F0010387F8803007F1800207F1840066
:100E30000423042127F012FDC7F83401D7F8343118
:100E4000002B0CBF01230023DBB2DBB200223B638B
:100E50007A63924B00934FF4EE73914AD7E90C01F9
:100E600027F0CEFCD7F890301B783A2B40D1D7F83A
:100E70009030581C07F190030022194640F0E8FD1D
:100E8000C7F83001D7F88430FB67834B1B78012B00
:100E900008D1D7F83031C3F31602FB6F62F31603A3
:100EA000FB6707E0D7F83031C3F31602FB6F62F33C
:100EB0005F23FB6707F17C0207F184000423042110
:100EC00027F0CCFCC7F82C01D7F82C31002B0CBF35
:100ED00001230023DBB2DBB20022BB62FA626F4B5C
:100EE000009340F2E7136E4AD7E90A0127F088FC25
:100EF000D7F85C319A00D7F86C319818D7F83821B8
:100F0000D7F85C31D11A07F18402042327F0A6FC3C
:100F1000C7F82801D7F82831002B0CBF0123002384
:100F2000DBB2DBB200223B627A625C4B00934FF48F
:100F3000F5735B4AD7E9080127F062FCD7F85C310A
:100F40000133C7F85C3112E1D7F860319A0007F538
:100F5000B873A3F598731B6813441A6807F19003DC
:100F60001946104640F0C4FBB0EE407AF0EE607ACD
:100F700007F1700383ED007B07F17003D3E90001F3
:100F800002460B4647F0C2FF0346002B00F0C2802A
:100F9000D7F860319A0007F5B873A3F598731B680A
:100FA00013441B681B782D2B3AD107F17003D3E94A
:100FB000002307F1700141E90223374B1B78012B15
:100FC00008D107F5B873A3F20112137843F0800338
:100FD000137007E007F5B873A3F58472137843F034
:100FE0000103137007F1680207F17000082308215C
:100FF00027F034FCC7F82401D7F82431002B0CBFAC
:1010000001230023DBB2DBB20022BB61FA61234B78
:10101000009340F20123224AD7E9060127F0F0FBB2
:10102000D7F89030002B75D0D7F890301B783A2B3A
:1010300070D1D7F89030581C07F190030022194660
:1010400040F0E2FDC7E9460107F17003D3E9002350
:1010500007F16001C1E900230F4B1B78012B21D15F
:10106000D7E946234FF000004FF00001180000219F
:101070000146C1F3130107F5B873A3F5867213682F
:1010800061F313031360D7F8182107F5B873A3F5BC
:1010900088731A6020E000BF0000FE1F689A0400F9
:1010A0002C9A0400D7E946234FF000004FF00001CE
:1010B000180000210146C1F3130107F5B873A3F529
:1010C0008872136861F31F331360D7F8182107F58E
:1010D000B873A3F588735A6007F1600207F17000D6
:1010E0000823082127F0BAFBC7F81401D7F81431F8
:1010F000002B0CBF01230023DBB2DBB200223B61DB
:101100007A61C14B009340F21123C04AD7E9040130
:1011100027F076FBD7F85C21531CC7F85C311346E7
:101120009A00D7F86C311A4407F5B873A3F58073A9
:101130001B681360D7F85C21531CC7F85C31134659
:101140009A00D7F86C311A4407F5B873A3F5807389
:101150005B6813600BE0AE4B009340F29B23AB4AFD
:101160004FF000004FF0000127F04AFB00BFD7F816
:101170009030002B27D0D7F890301B78002B22D04E
:10118000D7F890301B785F2B1DD0D7F860319B00CB
:1011900007F5B872A2F59872126813441B6807F13C
:1011A00094000093D7F860319A4A80213EF03EFDCA
:1011B00007F1940207F5B873A3F592731146186806
:1011C00008F058FBFCE0D7F860310133C7F8603114
:1011D00007F5B873A3F59673D7F860211B689A4298
:1011E000FFF62FAD07F5B873A3F5927300211868C9
:1011F00008F040FBD7F84431D7F85C219A420CBF85
:1012000001230023DBB2DBB20022BB60FA60824B19
:10121000009340F2A9237D4AD7E9020127F0F0FAB2
:10122000D7F86C31D7F84421D7F84C11D7F85401CE
:1012300007F0FEFF034683F00103DBB2002B40F012
:10124000BE800023C7F86831A5E0D7F858311B8865
:101250001A46D7F868311344D7F8582113441B7C39
:101260007C3B032B7AD801A252F823F01113000023
:10127000E71200009F1200007D120000D7F86431D1
:101280009B00D7F86C2113441B681946634827F06C
:10129000A3F9D7F864310133C7F864316AE0D7F8AD
:1012A00064319B00D7F86C2113441A6807F5B873B2
:1012B000A3F58C731A60D7F8643101339B00D7F81B
:1012C0006C2113441A6807F5B873A3F58C735A6040
:1012D000D7F864310233C7F86431D7E91623504890
:1012E00027F07AF946E0D7F864319B00D7F86C21F3
:1012F00013441B68184647F017FB02460B46494843
:1013000027F06AF9D7F864310133C7F8643131E066
:10131000D7F864319B00D7F86C2113441A6807F59D
:10132000B873A3F590731A60D7F8643101339B004A
:10133000D7F86C2113441A6807F5B873A3F59073B6
:101340005A60D7F864310233C7F8643107F15003AB
:10135000D3E90023344827F03FF90BE02C4B0093EE
:1013600040F26633294A4FF000004FF0000127F0A9
:1013700047FA00BFD7F858315B88013B1A46D7F8C7
:101380006831934202D2294827F026F9D7F868310C
:101390000133C7F86831D7F858315B881A46D7F857
:1013A00068319342FFF451AF214827F015F9D7F87F
:1013B0006C0104F0F7FB012320E000BF00E000BF58
:1013C000D7F86C31002B03D0D7F86C0104F0EAFB9E
:1013D00007F5B873A3F59273186808F077FA034617
:1013E0001A4600233A607B60124B00934FF46173FE
:1013F000064AD7E9000127F003FA0023184607F54B
:10140000BA77BD46BDE8F08F689A04002C9A0400B4
:10141000109B0400149B0400349B0400489B0400B0
:10142000549B0400609B04006C9B0400789B0400A8
:101430007C9B0400809B040080B586B000AFF86000
:10144000B9607A603B603B687A68B968F868FFF712
:10145000F3FA0346FB75FB7D002B07D0F86808F014
:1014600035FA0346002B01D1012300E0002303F0ED
:101470000103DBB218461837BD4680BD80B582B087
:1014800000AF7860396038683EF05AFE0346013399
:101490003A681946786800F033F800BF0837BD464F
:1014A00080BD80B584B000AFC7E900010023FB60B8
:1014B000D7E90023B2F1FF3F73F100030DD23B687F
:1014C000184604F055FBF860FB68002B05D03B681C
:1014D0001A460021F8683DF087FFFB681846103770
:1014E000BD4680BD80B582B000AF78603960002213
:1014F0003968786800F004F800BF0837BD4680BD41
:10150000B0B588B002AFF860B9607A60FB68002BB4
:1015100045D014220021F8683DF066FFBB68002B1F
:101520003FD001230122B968F86827F045FB034644
:1015300083F00103DBB2002B0BD01D4B4FF48772FD
:101540001C49032027F0F8F900BFF86800F04BF8B9
:101550002AE07B68002B26D000237B61BB687B617F
:10156000FB6858687B697A68796927F077F9386190
:101570003B69002B0CBF01230023DBB2DBB200224E
:101580001C4615460C4B00934FF48773094A2046BE
:10159000294627F035F9FB68BA689A6003E000BF76
:1015A00002E000BF00E000BF1837BD46B0BD00BF7D
:1015B000BC9B0400D49B0400089C040080B582B04E
:1015C00000AF786039603B68002B08D03B68196831
:1015D0003B685B681A467868FFF792FF00E000BF3F
:1015E0000837BD4680BD80B582B000AF78607B68AB
:1015F000002B02D0786827F029FD00BF0837BD46D0
:1016000080BD80B582B000AF786039600022396853
:10161000786800F005F800BF0837BD4680BDFFFFC1
:10162000B0B588B002AFF860B9607A60FB68002B93
:1016300046D014220021F8683DF0D6FEBB68002B8E
:1016400040D001230422B968F86827F0B5FA0346B0
:1016500083F00103DBB2002B0BD01D4B4FF48972DA
:101660001C49032027F068F900BFF86800F0A0F8D3
:101670002BE07B68002B27D000237B61BB689B009D
:101680007B61FB6858687B697A68796927F0E6F8BE
:1016900038613B69002B0CBF01230023DBB2DBB2B6
:1016A00000221C4615460C4B00934FF48973094ADF
:1016B0002046294627F0A4F8FB68BA689A6003E040
:1016C00000BF02E000BF00E000BF1837BD46B0BD5C
:1016D000BC9B0400D49B0400089C040090B587B018
:1016E00002AF786039600023FB607B68002B51D02B
:1016F0001422002178683DF077FE3B68002B4BD028
:101700003B681B68002B47D03B6819680123042203
:10171000786827F051FA034683F00103DBB2002B0F
:1017200007D01F4B4FF489721E49032027F004F99C
:101730002CE00023FB601FE03B685A68FB689B00BD
:10174000134419687B685A68FB689B00D4180846E4
:1017500003F052FD034623602368002B09D1124B8E
:101760000093124B4FF489720E49032027F0E4F8DE
:101770000CE0FB680133FB603B689B68FA689A42A7
:10178000DAD13B689A687B689A6006E0786800F076
:101790000FF802E000BF00E000BF1437BD4690BD67
:1017A000BC9B0400D49B0400349C0400149C0400E3
:1017B00080B584B000AF78600023FB607B68002BAD
:1017C0001BD00023FB600BE07B685A68FB689B0022
:1017D00013441B68184603F08BFDFB680133FB6064
:1017E0007B689B68FA689A4203D07B685B68002B31
:1017F000EAD1786827F02AFC00E000BF1037BD4628
:1018000080BD80B582B000AF786039600022396851
:10181000786800F005F800BF0837BD4680BDFFFFBF
:10182000B0B588B002AFF860B9607A60FB68002B91
:1018300046D014220021F8683DF0D6FDBB68002B8D
:1018400040D001230422B968F86827F0B5F90346AF
:1018500083F00103DBB2002B0BD01D4B4FF48B72D6
:101860001C49032027F068F800BFF86800F036F83C
:101870002BE07B68002B27D000237B61BB689B009B
:101880007B61FB6858687B697A68796926F0E6FFB6
:1018900038613B69002B0CBF01230023DBB2DBB2B4
:1018A00000221C4615460C4B00934FF48B73094ADB
:1018B0002046294626F0A4FFFB68BA689A6003E038
:1018C00000BF02E000BF00E000BF1837BD46B0BD5A
:1018D000BC9B0400D49B0400089C040080B584B029
:1018E00000AF78600023FB607B68002B1BD00023D7
:1018F000FB600BE07B685A68FB689B0013441B6825
:10190000184603F037FCFB680133FB607B689B687B
:10191000FA689A4203D07B685B68002BEAD178684A
:1019200027F094FB00E000BF1037BD4680BD80B5B6
:1019300082B000AF7860396000223968786800F0C2
:1019400005F800BF0837BD4680BDFFFFB0B588B0C1
:1019500002AFF860B9607A60FB68002B46D01422B1
:101960000021F8683DF040FDBB68002B40D001230A
:101970000422B968F86827F01FF9034683F00103D1
:10198000DBB2002B0BD01D4B40F217121C49032079
:1019900026F0D2FF00BFF86800F036F82BE07B6835
:1019A000002B27D000237B61BB689B007B61FB6819
:1019B00058687B697A68796926F050FF38613B691D
:1019C000002B0CBF01230023DBB2DBB200221C463C
:1019D00015460C4B009340F21713094A204629463E
:1019E00026F00EFFFB68BA689A6003E000BF02E0D1
:1019F00000BF00E000BF1837BD46B0BDBC9B04006F
:101A0000D49B0400089C040080B584B000AF7860CB
:101A10000023FB607B68002B1BD00023FB600BE0E6
:101A20007B685A68FB689B0013441B68184601F0EA
:101A30009DFCFB680133FB607B689B68FA689A42F7
:101A400003D07B685B68002BEAD1786827F0FEFA48
:101A500000E000BF1037BD4680BD80B582B000AF4A
:101A60007860396000223968786800F005F800BFB6
:101A70000837BD4680BDFFFFB0B588B002AFF86043
:101A8000B9607A60FB68002B46D014220021F86808
:101A90003DF0AAFCBB68002B40D001230422B968AA
:101AA000F86827F089F8034683F00103DBB2002BC6
:101AB0000BD01D4B40F219121C49032026F03CFFAD
:101AC00000BFF86800F0A0F82BE07B68002B27D05F
:101AD00000237B61BB689B007B61FB6858687B6966
:101AE0007A68796926F0BAFE38613B69002B0CBF31
:101AF00001230023DBB2DBB200221C4615460C4B4F
:101B0000009340F21913094A2046294626F078FE30
:101B1000FB68BA689A6003E000BF02E000BF00E023
:101B200000BF1837BD46B0BDBC9B0400D49B040069
:101B3000089C040090B587B002AF7860396000233C
:101B4000FB607B68002B51D01422002178683DF0A7
:101B50004BFC3B68002B4BD03B681B68002B47D0ED
:101B60003B68196801230422786827F025F80346AA
:101B700083F00103DBB2002B07D01F4B40F2191298
:101B80001E49032026F0D8FE2CE00023FB601FE056
:101B90003B685A68FB689B00134419687B685A6865
:101BA000FB689B00D418084600F09BFC03462360AA
:101BB0002368002B09D1124B0093124B40F21912EB
:101BC0000E49032026F0B8FE0CE0FB680133FB60F1
:101BD0003B689B68FA689A42DAD13B689A687B68EE
:101BE0009A6006E0786800F00FF802E000BF00E0BD
:101BF00000BF1437BD4690BDBC9B0400D49B0400BD
:101C0000789C0400149C040080B584B000AF786018
:101C10000023FB607B68002B1BD00023FB600BE0E4
:101C20007B685A68FB689B0013441B68184600F0E9
:101C30004AFCFB680133FB607B689B68FA689A4248
:101C400003D07B685B68002BEAD1786827F0FEF947
:101C500000E000BF1037BD4680BD80B584B000AF46
:101C6000F8600B467A60FB72FB68002B01D1002301
:101C70000DE0FB68FA7A1A707B68002B06D0FB68CF
:101C800004331022796818463DF098FAFB6818462C
:101C90001037BD4680BD80B584B000AF78607B68EA
:101CA000002B2BD00023FB6016E07B68043307F188
:101CB0000802F968184627F057F80346002B08D0A9
:101CC000BB680C33184626F075FDBB68184603F058
:101CD00069FFFB680133FB607B68DB68FA689A4246
:101CE000E3D37B680433184627F0B0F97B681833D8
:101CF000184627F0ABF9786803F054FF06F080FF30
:101D000000BF1037BD4680BD80B5B6B000AF78606B
:101D10000023C7F8D43007F10C03C822002118466D
:101D20003DF062FB042026F0F7FD7B681B783B73D7
:101D30007B68191D07F10C030433102218463DF08F
:101D40003DFA7B681B7E87F8D0307B685B69C7F8FB
:101D5000CC3007F10C03184606F0E2FF034683F08F
:101D60000103DBB2002B07D0224B40F2971222492D
:101D7000032026F0E1FD34E04FF02C004FF000018D
:101D8000FFF78FFBC7F8D400D7F8D430002B23D04F
:101D9000D7F8D430181D01230422082126F00CFFA7
:101DA000034683F00103DBB2002B17D1D7F8D43000
:101DB00003F1180001230822082126F0FDFE034646
:101DC00083F00103DBB2002B0AD1D7F8D430012213
:101DD0001A60D7F8D43009E000BF02E000BF00E08D
:101DE00000BFD7F8D400FFF756FF00231846D837B6
:101DF000BD4680BD809C0400D49B040080B588B0A3
:101E000000AF3B4600221A605A609A60DA601A619D
:101E10005A619A613B46002202211846FFF71DFFD6
:101E20003B46184600F006F8F861FB691846203773
:101E3000BD4680BD80B582B000AF78600A4B1B689C
:101E4000002B06D17868FFF75FFF0346064A136050
:101E500004E0054B1B681A6801321A60024B1B68CC
:101E600018460837BD4680BDDC17FE1F2DE9B0437C
:101E700084B002AF78607B68002B3ED0224B1B6899
:101E8000002B3CD0204B1B687A689A420CBF012380
:101E90000023DBB2DBB20022984691461B4B009335
:101EA0004FF4FC731A4A4046494626F0A9FC164BEB
:101EB0001B681B68002B14BF01230023DBB2DBB2BD
:101EC00000221C461546134B009340F2F913104AAA
:101ED0002046294626F094FC0B4B1B681A68013AF1
:101EE0001A60094B1B681B68002B09D17868FFF743
:101EF000D2FE054B00221A6002E000BF00E000BFE6
:101F00000837BD46BDE8B083DC17FE1FA09C040067
:101F1000D49B0400BC9C0400B0B588B002AFF8604C
:101F2000B9607A603B6000237B6120E07A68796960
:101F3000F86826F019FF0346FB74FB7C00221C4660
:101F40001546104B009340F20F230F4A20462946B6
:101F500026F056FC7B681B68BA689A4204D13B683D
:101F60007A691A60012308E07B6901337B61FB68B1
:101F70009B687A699A42D9D3002318461837BD4620
:101F8000B0BD00BFDC9C0400D49B040080B586B0CB
:101F900000AF7860396000233B6107F1080300223D
:101FA0001A605A6000237B6107F1100307F10802F1
:101FB00039687868FFF7B0FF0346002B02D0FB6852
:101FC0007B6101E000237B617B6918461837BD46C1
:101FD00080BDFFFFB0B588B002AF786039600023E4
:101FE0003B6107F1080300221A605A600023FB7569
:101FF00007F1100307F1080239687868FFF78CFFD2
:102000000346002B20D0FB68B3F1FF3F02D1002331
:10201000FB7525E0FB680133FB603B6907F10802B3
:102020001946786826F03EFE0346FB75FB7D0022CC
:102030001C4615460D4B009340F24E230C4A204699
:10204000294626F0DDFB0BE03B68BB600123FB600B
:1020500007F108031946786826F0EAFE0346FB7587
:10206000FB7D18461837BD46B0BD00BFDC9C0400A0
:10207000D49B04002DE9B04388B002AF786039608A
:1020800000233B6107F1080300221A605A60002315
:10209000FB7507F1100307F1080239687868FFF74C
:1020A0003BFF0346FB75FB7D002298469146174B8C
:1020B000009340F27523164A4046494626F0A0FB9D
:1020C000FB68002B02D10023FB7518E0FB68013B85
:1020D000FB603B6907F108021946786826F0E2FDCB
:1020E0000346FB75FB7D00221C461546074B0093FB
:1020F00040F27E23064A2046294626F081FBFB7DDE
:1021000018461837BD46BDE8B08300BFDC9C04000C
:10211000D49B040090B587B002AF78600023FB60C9
:102120007B68002B04D0784B1B687A689A4201D0F8
:102130000023E5E07B6803F1180426F018FB034652
:1021400019462046FFF722FF0346002B3CD107F03B
:1021500021F8034683F00103DBB2002B07D06B4B61
:1021600000220021012026F0E7FB0023C8E07B6865
:1021700003F1180426F0FBFA034619462046FFF740
:1021800029FF034683F00103DBB2002B03D007F0E5
:1021900009F80023B4E04FF00C004FF00001FFF706
:1021A00080F9F860FB68002B37D1574B1B6803F1AF
:1021B000180426F0DCFA034619462046FFF75AFFBA
:1021C00006F0F0FF00239BE07B6803F1180426F083
:1021D000CEFA034619462046FFF7FCFE034683F07D
:1021E0000103DBB2002B01D0002389E04FF00C008B
:1021F0004FF00001FFF755F9F860FB68002B0CD198
:10220000414B1B6803F1180426F0B1FA0346194646
:102210002046FFF72FFF002372E04FF014004FF02D
:102220000001FFF73EF90246FB681A60FB681B6875
:10223000002B5CD0FB681B6840211846FFF777FB3A
:10224000FB681B681B68002B0ED0FB681B685B6873
:10225000002B09D12E4B00932E4B40F2BE222E496B
:10226000032026F069FB47E04FF014004FF0000117
:10227000FFF717F90246FB685A60FB685B68002BA2
:1022800037D0FB685B6840211846FFF7BAFAFB6855
:102290005B681B68002B0ED0FB685B685B68002BDB
:1022A00009D11E4B00931B4B4FF430721A49032087
:1022B00026F042FB20E04FF014004FF00001FFF742
:1022C000F0F80246FB689A60FB689B68002B12D00E
:1022D000FB68986801230422182126F06DFC034650
:1022E00083F00103DBB2002B05D1FB6808E000BFDF
:1022F00002E000BF00E000BFF86800F011F8002322
:1023000018461437BD4690BDDC17FE1FE09C040044
:102310000C9D0400009D0400D49B0400309D04002B
:1023200090B583B000AF78607B68002B51D07B689C
:102330005B68002B0CD07B685B681846FFF7CEFA11
:102340007B685B68184603F02DFC7B6800225A60AE
:102350007B681B68002B0CD07B681B681846FFF756
:1023600053FB7B681B68184603F01CFC7B6800224B
:102370001A607B689B68002B09D07B689B681846B5
:1023800026F064FE7B689B68184603F00BFC7868B7
:1023900003F008FC114B1B6803F1180426F0E7F961
:1023A000034619462046FFF765FE0346002B11D071
:1023B0000A4B1B6803F1180426F0D9F903461946A5
:1023C0002046FFF7E3FD0346002B03D106F0EAFEAB
:1023D00000E000BF0C37BD4690BD00BFDC17FE1FFC
:1023E00080B483B000AF0346FB71FB79703B0F2BC9
:1023F0002ED801A252F823F04D24000051240000F1
:1024000051240000512400005124000051240000F8
:1024100051240000512400005124000051240000E8
:1024200051240000492400004524000041240000FC
:102430003D2400003924000000230AE0012308E0C5
:10244000022306E0032304E0042302E0812300E0EA
:10245000802318460C37BD465DF8047B704700BFEB
:1024600080B582B000AF0346FB71FB791846FFF7D9
:10247000B7FF0346184600F005F80346184608372C
:10248000BD4680BD80B584B000AF0346FB71FB79CB
:10249000042B04D9FB79812B01D000230FE04FF0EE
:1024A00001004FF00001FEF7FCFFF860FB68002B15
:1024B00001D1002303E0FB68FA791A70FB68184623
:1024C0001037BD4680BD80B582B000AF78607B68B4
:1024D000002B02D0786803F065FB00BF0837BD46CB
:1024E00080BD80B582B000AF78607B68002B06D0DD
:1024F0007B681B781846FFF7C5FF034600E0002302
:1025000018460837BD4680BD80B483B000AF786000
:102510007B68002B02D07B681B7800E08023184684
:102520000C37BD465DF8047B7047FFFF80B588B06F
:1025300002AF786000233B610023FB600023BB6097
:1025400000237B617B68002B01D10023DAE04FF090
:102550000C004FF00001FEF7A4FF38613B69002B2F
:1025600001D10023CEE03B6900221A604FF0140035
:102570004FF00001FEF795FF02463B695A603B6948
:102580005B68002B00F0AB803B695A687B681B8856
:1025900019461046FFF761FA3B695B681B68002B20
:1025A0000ED03B695B685B68002B09D1574B0093E9
:1025B000574B40F242325749032026F0BDF995E0CF
:1025C00000237B6126E07B6803F110027B691344E2
:1025D0001B781846FFF744FF0346FB60FB68002B9F
:1025E0007FD03B695B6807F10C021146184626F064
:1025F0001FFC034683F00103DBB2002B07D0464BE0
:1026000040F24A324349032026F096F96EE07B6996
:1026100001337B617B681B881A467B699342D2D366
:102620004FF014004FF00001FEF73BFF02463B69FC
:102630009A603B699B68002B55D03B699A687B6820
:102640005B8819461046FFF708FA3B699B681B68D0
:10265000002B0ED03B699B685B68002B09D12B4B8C
:1026600000932B4B40F251322A49032026F064F9A3
:102670003CE000237B612AE07B6803F110027B6869
:102680001B8819467B690B4413441B781846FFF7D7
:10269000E7FE0346BB60BB68002B26D03B699B6806
:1026A00007F108021146184626F0C2FB034683F0E4
:1026B0000103DBB2002B07D0174B40F25A32154909
:1026C000032026F039F911E07B6901337B617B68D7
:1026D0005B881A467B699342CED33B6912E000BF08
:1026E00004E000BF02E000BF00E000BFFB68184646
:1026F000FFF7E9FEBB681846FFF7E5FE386900F012
:10270000E8F8002318461837BD4680BD549D0400E4
:10271000009D0400D49B0400789D04002DE9B04383
:1027200088B002AF7860396000237B614FF00C0005
:102730004FF00001FEF7B5FE78617B69002B5AD09F
:102740007B6900221A604FF014004FF00001FEF781
:10275000A8FE02467B695A607B695B68002B4CD0FF
:102760007B68002B1AD07B69586814237A6814217F
:1027700026F074F838613B69002B0CBF012300235D
:10278000DBB2DBB2002298469146224B009340F226
:102790007933214A4046494626F032F84FF014007A
:1027A0004FF00001FEF77DFE02467B699A607B696F
:1027B0009B68002B23D03B68002B1AD07B6998685C
:1027C00014233A68142126F049F8F860FB68002BBE
:1027D0000CBF01230023DBB2DBB200221C461546EE
:1027E0000C4B009340F281330B4A2046294626F0D9
:1027F00007F87B6908E000BF02E000BF00E000BF0F
:10280000786900F066F8002318461837BD46BDE821
:10281000B08300BF089C0400D49B040080B58EB038
:1028200000AF786007F1200300221A605A609A60B6
:10283000DA601A6107F10C0300221A605A609A608C
:10284000DA601A617B68002B01D100233DE07B68D0
:102850005A6807F1200311461846FFF76BF97B68A9
:102860005B681B68002B02D07B6A002B1DD07B6845
:102870009A6807F10C0311461846FFF75BF97B686D
:102880009B681B68002B02D03B69002B0FD007F11F
:102890000C0207F1200311461846FFF73FFF78634B
:1028A0007B6B002B05D07B6B0FE000BF02E000BF0D
:1028B00000E000BF07F120031846FFF7A5F907F174
:1028C0000C031846FFF7A0F9002318463837BD4619
:1028D00080BD80B582B000AF78607B68002B25D0CA
:1028E0007B685B68002B0CD07B685B681846FFF741
:1028F0008BF97B685B68184603F054F97B6800220B
:102900005A607B689B68002B0CD07B689B681846DC
:10291000FFF77AF97B689B68184603F043F97B68F8
:1029200000229A60786803F03DF900E000BF0837A4
:10293000BD4680BD80B483B000AF78607B68002B5B
:1029400001D1002301E07B685B6818460C37BD4667
:102950005DF8047B704780B483B000AF78607B681B
:10296000002B01D1002301E07B689B6818460C37DF
:10297000BD465DF8047B704780B483B000AF03466A
:102980000A46FB711346BB71FB79002B02D1BB7960
:102990007F2B23D0FB79012B02D1BB797E2B1DD05D
:1029A000FB79022B02D1BB797D2B17D0FB79032B4E
:1029B00002D1BB797C2B11D0FB79042B02D1BB79DE
:1029C0007B2B0BD0FB79802B02D1BB796F2B05D0F1
:1029D000FB79812B04D1BB79702B01D1012300E05D
:1029E000002303F00103DBB218460C37BD465DF847
:1029F000047B704780B586B000AF786039600023F3
:102A00007B617B68002B10D03B68002B0DD07B686E
:102A10005B689B683A681288934206D17B689B6822
:102A20009B683A685288934201D0002355E0002306
:102A30007B611FE07B685B685A687B699B0013447D
:102A40001B68FB60F868FFF75FFD034618463A68AD
:102A50007B69134410331B781946FFF78DFF03463B
:102A600083F00103DBB2002B01D0002335E07B694A
:102A700001337B617B685B689B687A699A42D9D332
:102A800000237B6122E07B689B685A687B699B001E
:102A900013441B683B613869FFF736FD034618464F
:102AA0007B685B689A687B6913443A6813441B7CB3
:102AB0001946FFF761FF034683F00103DBB2002BE9
:102AC00001D0002309E07B6901337B617B689B684F
:102AD0009B687A699A42D6D3012318461837BD46B7
:102AE00080BD80B584B000AF78600B46FB700023DA
:102AF000FB607B68002B01D1002315E04FF00C0038
:102B00004FF00001FEF7CDFCF860FB68002B01D10F
:102B1000002309E0FB6801221A60FB687A685A60AA
:102B2000FB68FA781A72FB6818461037BD4680BDFC
:102B300080B584B000AF03460A46FB711346BB71F3
:102B4000FB791846FFF74CFC03461846FFF79AFC42
:102B5000F860FB68002B01D100230CE0BB7919461B
:102B6000F868FFF7BEFFB860BB68002B02D1F868B9
:102B7000FFF7A9FCBB6818461037BD4680BD80B57D
:102B800082B000AF78607B68002B0FD07B685B68F9
:102B9000002B07D07B685B681846FFF794FC7B68C6
:102BA00000225A60786802F0FDFF00E000BF08379D
:102BB000BD4680BD80B584B000AF78607B68002BD7
:102BC00001D1002318E07B685B681846FFF789FC99
:102BD000F860FB68002B01D100230DE07B681B7AB5
:102BE0001946F868FFF77DFFB860BB68002B02D17B
:102BF000F868FFF768FCBB6818461037BD4680BD13
:102C000080B588B000AF0346B9607A60FB73BB68DB
:102C10003B617B687B61FB7B1846FFF721FCF86119
:102C2000FB69002B01D100230DE007F110031946C9
:102C3000F86900F00CF8B861BB69002B02D1F869A3
:102C4000FFF741FCBB6918462037BD4680BD80B503
:102C500084B000AF786039600023FB607B68002B94
:102C600002D03B68002B01D1002322E07868FFF7F7
:102C70004BFC0346812B01D000231AE04FF01000DB
:102C80004FF00001FEF70DFCF860FB68002B01D14E
:102C900000230EE0FB6802221A60FB687A685A6023
:102CA0003B681A68FB689A603B685A68FB68DA60A0
:102CB000FB6818461037BD4680BD80B584B000AFB4
:102CC00078607B68002B01D1002318E07B685B688B
:102CD0001846FFF706FCF860FB68002B01D10023C3
:102CE0000DE07B6808331946F868FFF7B0FFB8605D
:102CF000BB68002B02D1F868FFF7E5FBBB681846FC
:102D00001037BD4680BD80B582B000AF78607B686B
:102D1000002B0FD07B685B68002B07D07B685B685B
:102D20001846FFF7D0FB7B6800225A60786802F0F3
:102D300039FF00E000BF0837BD4680BD80B584B0D4
:102D400000AF786039607B68BB603B68FB6007F16F
:102D50000803184600F005F8034618461037BD462C
:102D600080BD80B584B000AF78600023FB607B68D5
:102D7000002B01D1002317E04FF00C004FF00001B1
:102D8000FEF78FFBF860FB68002B01D100230BE0FE
:102D9000FB6803221A607B681A68FB685A607B68CC
:102DA0005A68FB689A60FB6818461037BD4680BDBC
:102DB00080B582B000AF78607B68002B01D1002322
:102DC00005E07B6804331846FFF7CBFF034618463F
:102DD0000837BD4680BD80B582B000AF78607B68A3
:102DE000002B02D0786802F0DDFE00BF0837BD4638
:102DF00080BD80B582B000AF78607B68002B02D0C8
:102E0000786802F0CFFE00BF0837BD4680BDFFFFE7
:102E1000B0B586B002AF786039607B68002B1DD0FA
:102E20003B68002B1AD010233A681021786825F0EF
:102E300015FDF860FB68002B0CBF01230023DBB2FB
:102E4000DBB200221C461546064B009340F25D6340
:102E5000054A2046294625F0D3FC00E000BF103784
:102E6000BD46B0BD089C0400D49B040080B588B06A
:102E700002AFF8600B467A60FB720123FB75FB7AA8
:102E80007B3B042B3CD801A252F823F0E92E000032
:102E9000D52E0000B12E0000C12E0000A12E000092
:102EA0007B6800221A70FB681A687B689A6031E0C0
:102EB0007B6802221A70FB681A687B689A6029E0B6
:102EC0007B6801221A70FB68D3E900237968C1E9A5
:102ED00002231FE07B6803221A70FB68D3E90023FA
:102EE0007968C1E9022315E00D4B009340F2766347
:102EF0000C4A4FF000004FF0000125F081FC09E082
:102F0000FB7A0093084B00220021022025F014FDDB
:102F10000023FB75FB7D18461837BD4680BD00BFFA
:102F2000D09D0400D49B0400D49D040080B586B0DD
:102F300000AFF860B9607A603B601F4B1B68002BE4
:102F400001D1002333E04FF008004FF00001FEF7FD
:102F5000A8FA78617B69002B01D1002327E07B6808
:102F6000002B1BD07B681B78002B17D04FF0140070
:102F70004FF00001FEF795FA02467B691A607B6903
:102F80001B68002B0CD07B691B6879681846FEF71C
:102F900075FA7B691B685B68002B03D07B6906E0D0
:102FA00000BF00E000BF786900F05CF8002318461D
:102FB0001837BD4680BD00BFDC17FE1F80B586B048
:102FC00002AF786039607B68002B01D100233FE0BD
:102FD0004FF008004FF00001FEF763FAF860FB685D
:102FE000002B01D1002333E03B68002B29D04FF0A8
:102FF00014004FF00001FEF754FA0246FB681A6015
:10300000FB681B68002B1ED0FB6818683B681968BA
:103010003B685B681A46FEF773FAFB681B681B681F
:10302000002B0ED0FB681B685B68002B09D10A4B94
:1030300000930A4B40F2EF720949032025F07CFC13
:1030400002E0FB6804E000BFF86800F00BF8002322
:1030500018461037BD4680BD409E0400009D040008
:10306000D49B040080B582B000AF78607B68002BF1
:1030700014D07B681B68002B0CD07B681B6818463B
:10308000FEF7B1FA7B681B68184602F08BFD7B687F
:1030900000221A60786802F085FD00E000BF083762
:1030A000BD4680BD80B483B000AF78607B681846B1
:1030B0000C37BD465DF8047B704780B483B000AF29
:1030C00078607B6818460C37BD465DF8047B704716
:1030D000B0B5A8B002AFF860B9607A6000237B6138
:1030E00007F118037C22002118463CF07DF90023EB
:1030F0003B61894B1B681A46002314461D46874BCB
:10310000009340F6CF03864A2046294625F078FBF7
:10311000FB68002B00F0EF80BB68002B00F0EB8019
:10312000BB681B68002B00F0E680BB685A68BB6870
:103130001B681946104605F063FE0346A7F8963053
:10314000002387F89530B7F89630002B0CBF012389
:10315000002387F8953097F8953083F00103DBB2B0
:10316000002B06D06F4B00220021042025F0E4FB49
:10317000C4E04FF03C004FF00001FEF792F9034627
:103180003B613B69002B00F0B8803B697A6812799B
:103190001A727B681B79002B19D03C694FF0140020
:1031A0004FF00001FEF77DF9034663603B695B6801
:1031B000002B00F098803B695B68B9681846FEF701
:1031C000FDF93B695B685B68002B03D181E03B69DB
:1031D000BA685A607B681B79002B14BF0123002357
:1031E000DBB283F00103DBB203F00103DAB27B68E8
:1031F0005A713B695B6858683B695B6819683C6950
:1032000007F11403802200927A6805F073FE0346EA
:1032100023603B691B68002B09D107F1140300935D
:10322000414B00220021012025F086FB46E0FB688F
:103230001B6807F110021146184625F0F9FD0346F8
:1032400083F00103DBB2002B32D13B690C3318460B
:1032500025F0A0FA0346002B1ED12F4B1B68043328
:1032600007F110021146184625F0E2FD034683F0EF
:103270000103DBB2002B08D13B6901229A633B6951
:103280001846FFF70FFF034641E000BF3B690C33D0
:10329000184625F08FFA00E000BFFB681868FB684D
:1032A0001B689B68013B0022194625F035FE00E0B3
:1032B00000BF3B691B68184605F098FE7B681B79C8
:1032C000002B05D03B695B681846FEF78CF900E0DF
:1032D00000BF7B681B79002B07D03B695B681846F1
:1032E00002F060FC02E000BF00E000BF3B6918464E
:1032F00002F058FC02E000BF00E000BF0B4B00935F
:103300000B4B00220021012025F016FB002318465C
:103310009837BD46B0BD00BFDC17FE1F549E0400A9
:10332000D49B0400689E0400B09E040054A60400D0
:10333000009D040080B584B000AF7860396007F16B
:10334000080300221A605A60074BBB6001233B73DD
:1033500007F108031A4639687868FFF7B9FE034693
:1033600018461037BD4680BDB49E040080B584B0B9
:1033700000AF78607B68002B3ED07868FFF79DFE39
:10338000F860FB680C33184625F020FAFB689B6B4D
:103390005A1EFB689A63FB689B6B002B05D0FB6889
:1033A0000C33184625F020FA27E0FB681B7A002B27
:1033B00010D0FB685B68002B0CD0FB685B6818467C
:1033C000FEF711F9FB685B68184602F0EBFBFB683F
:1033D00000225A60FB681B68002B07D0FB681B6843
:1033E000184605F003FEFB6800221A60FB680C33E8
:1033F000184625F0F9F900E000BF1037BD4680BD42
:1034000080B483B000AF786000BF0C37BD465DF874
:10341000047B704780B586B000AFF860B9607A6011
:1034200000237B61BB68002B34D04FF03C004FF091
:103430000001FEF736F878617B69002B2CD07B69A0
:10344000FA681A607B6900229A817B694FF6FF72E5
:103450001A867B69002283F820207B697A685A6289
:10346000B868FFF7DBF902467B699A617B699B6963
:10347000002B13D07B699B695B689B689AB27B6960
:103480009A837B699B699B689B689AB27B69DA83A4
:103490007B6908E000BF02E000BF00E000BF786980
:1034A00000F006F9002318461837BD4680BD80B5E8
:1034B00086B000AFF860B9607A603B6000237B6142
:1034C000BB68002B3AD04FF03C004FF00001FDF7F5
:1034D000E8FF78617B69002B32D07B69FA681A605B
:1034E0007B6900229A817B694FF6FF721A867B699D
:1034F000012283F820207B697A689A627B693A68A6
:103500005A627B693A6ADA62B868FFF787F902465D
:103510007B699A617B699B69002B13D07B699B69EE
:103520005B689B689AB27B699A837B699B699B689D
:103530009B689AB27B69DA837B6908E000BF02E08E
:1035400000BF00E000BF786900F0B2F80023184621
:103550001837BD4680BDFFFF2DE9B0438AB002AFEA
:10356000F8600B467A607B810023BB610023FB611E
:10357000494B1B681A46002390469946474B0093D7
:1035800040F62943464A4046494625F039F97B68CA
:10359000002B01D1002379E04FF03C004FF00001F7
:1035A000FDF77FFFB861BB69002B5DD0BB690022CE
:1035B0009A817B681B68002B2AD17A897B68D3F8B3
:1035C000E830DB689A4234BF01230023DBB2DBB270
:1035D00000221C461546334B009340F63843304AD0
:1035E0002046294625F00CF97B68D3F8E8305A6864
:1035F0007B895B0113447B617B691B78002B03D0C3
:103600007B69DB699B6802E07B69DB691B68FB61A6
:10361000FB69002B2AD0F869FEF788FF0246BB69D8
:103620009A61BB699B69002B22D0BB699B695B686F
:103630009B689AB2BB699A83BB699B699B689B68CC
:103640009AB2BB69DA83BB69FA681A60BB69002267
:103650005A60BB6900229A60BB697A891A86BB6985
:103660007A685A63BB6911E000BF02E000BF00E066
:1036700000BF0D4B00930D4B40F66E4208490320EE
:1036800025F05AF9B86900F013F8002318462037DE
:10369000BD46BDE8B08300BFDC17FE1F549E04008A
:1036A000D49B0400C89F040068A60400009D040089
:1036B00080B582B000AF78607B68002B32D07B6829
:1036C0009B69002B07D07B689B691846FFF701F9BF
:1036D0007B6800229A617B6893F82030002B0FD022
:1036E0007B68DB6A002B0BD07B68DB6A7A68526AE6
:1036F000104698477B680022DA627B6800225A6293
:103700007B681B69002B09D07B685B69002B05D0A7
:103710007B685B697A68126910469847786802F09E
:1037200041FA00E000BF0837BD4680BD90B587B0C4
:1037300002AF78600023FB607B68002B01D100237F
:1037400031E07B6893F82030002B0FD07B6818683D
:103750007B6899697B689A6A7B685C6A7B68DB6ACC
:1037600000932346FFF7A3FE034609E07B68186831
:103770007B6899697B685B6A1A46FFF74BFE0346D4
:10378000FB60FB68002B09D07B681A8EFB681A86E9
:103790007B685A6BFB685A63FB6804E000BFF868FB
:1037A000FFF786FF002318461437BD4690BDFFFF84
:1037B000B0B58AB002AFF860B9607A603B607B68F0
:1037C000BB61FB68002B0DD0FB689B68002B09D008
:1037D000FB681B68002B05D0FB685B68002B01D0E1
:1037E000012300E000231A46002314461D46304BF7
:1037F000009340F6C2432F4A2046294625F000F8A0
:10380000FB685B68FB61BB689B681B01FA6913443A
:103810007B613DE0FB691B78042B2BD801A252F899
:1038200023F000BF39380000493800003938000063
:10383000493800005D380000FB699A687B681A60AF
:103840007B6804337B6020E0FB69D3E9022379685D
:10385000C1E900237B6808337B6016E0164B0093B8
:1038600040F6D443134A4FF000004FF0000124F01B
:10387000C7FF0AE0FB691B780093104B0022002170
:10388000022025F059F800230EE0FB691033FB619C
:10389000FA697B699A42BDD37A68BB69D31A9B10D7
:1038A0001A463B681A60012318462037BD46B0BD52
:1038B00010A00400D49B0400D09D04004CA0040080
:1038C000B0B58AB002AFF860B9607A607B68002B4F
:1038D00009D07B681B68002B05D07B685B68002BD8
:1038E00001D0012300E000231A46002314461D46A0
:1038F000324B009340F6ED43314A2046294624F0EE
:103900007FFFBB685B68FB61BB689B689B00FA69D3
:1039100013447B617B685B68BB6146E0FB691B68A5
:103920001A78BB691A70BB691B78042B2AD801A2CC
:1039300052F823F049390000593900004939000094
:10394000593900006D390000FB681A68BB699A603C
:10395000FB680433FB6022E0FB68D3E90023B9690C
:10396000C1E90223FB680833FB6018E0154B0093A4
:1039700040F60153124A4FF000004FF0000124F0CE
:103980003FFF0CE0BB691B7801930F4B00930F4B7B
:1039900000220021022024F0CFFF00230AE0FB696F
:1039A0000433FB61BB691033BB61FA697B699A42DE
:1039B000B4D3012318462037BD46B0BD70A0040023
:1039C000D49B0400D09D040080A604009CA00400A9
:1039D0002DE9B043B6B002AFF860B9607A60002359
:1039E000C7F8A83007F128038022002118463BF0D1
:1039F000FBFC07F12803C7F8CC300023C7F8C83018
:103A00000023C7F8C4300023C7F8C030FB68002B80
:103A100005D0FB689B69002B01D0012300E0002347
:103A20001A46002390469946884B009340F621534E
:103A3000874A4046494624F0E3FEFB685B6B002B57
:103A40001FD107F1140300221A605A609A60DA60ED
:103A50001A6107F114037F491846FDF70FFDFB6853
:103A60001B6807F1140211461846FFF7A7FAC7F8BA
:103A7000AC0007F114031846FDF7B5FDD7F8AC30DC
:103A8000DFE0FB685B6B1B68002B0AD1FB685B6B9C
:103A9000D3F8E8305A68FB681B8E5B011344C7F803
:103AA000C830D7F8C830002B00F0A480F86800F0C8
:103AB000D5F8C7F8BC00F86800F0DCF8C7F8B80023
:103AC000D7F8B820D7F8BC30934238BF1346C7F8B0
:103AD000B430D7F8B430102B0FD9D7F8B430DB009E
:103AE00000221C46154620462946FDF7DAFCC7F899
:103AF000CC00D7F8CC30002B7ED0D7F8BC30002BD0
:103B000012D0FB689B691846FEF714FF014607F1C7
:103B1000A803D7F8CC20B868FFF74AFE034683F025
:103B20000103DBB2002B69D1D7F8C430002B06D1DA
:103B3000FB685B6B184605F0F9FDC7F8C400D7F8C1
:103B4000C430002B5CD0FB685B6B0021184605F08D
:103B500091FED7F8A820D7F8CC30D7F8C810D7F8FE
:103B6000C40005F065FB034683F00103DBB2002BC4
:103B700016D0FB685B6B184605F0A8FE0346002BC9
:103B80000ED0FB685B6B184605F0A0FE0346009361
:103B9000314B40F679522E49032024F0CDFE32E01D
:103BA000D7F8B830002B19D0FB689B691846FEF790
:103BB000D2FE03467A681946D7F8CC00FFF780FE9C
:103BC000034683F00103DBB2002B1BD17B68D7F8DF
:103BD000B8209A607B68D7F8B8201A6007F12803EC
:103BE000D7F8CC209A4203D0D7F8CC0001F0DAFF06
:103BF000002326E000BF06E000BF04E000BF02E0B3
:103C000000BF00E000BF07F12803D7F8CC209A429C
:103C100003D0D7F8CC0001F0C5FFFB681C68FB6837
:103C20005D6BFB685B6B184605F050FE0246D7F8EB
:103C3000C03029462046FFF779F9C7F8B000D7F819
:103C4000B0301846D037BD46BDE8B083BCA00400F4
:103C5000D49B0400D0A00400B09E040080B483B0C4
:103C600000AF78607B689B8B18460C37BD465DF8CB
:103C7000047B704780B483B000AF78607B68DB8BD7
:103C800018460C37BD465DF8047B704780B586B09A
:103C900002AF78600023FB607B68002B01D100231A
:103CA00049E04FF028004FF00001FDF7FAFBF86003
:103CB000FB68002B2DD0FB6801229A817B689B69F1
:103CC0001846FEF777FF0246FB689A61FB689B691E
:103CD000002B20D04FF010004FF00001FDF7E1FB6A
:103CE0000246FB68DA61FB68DB69002B15D0FB68D4
:103CF000DA697B68DB6919461046FFF789F87B684B
:103D00001A8CFB681A847B685A6AFB685A62FB68E3
:103D100011E000BF02E000BF00E000BF084B0093CD
:103D2000084B40F609620849032024F005FEF868B4
:103D300000F00CF8002318461037BD4680BD00BFC8
:103D400090A60400009D0400D49B040080B582B0BE
:103D500000AF78607B68002B29D07B68DB69002B83
:103D600007D07B68DB691846FFF743F87B680022C1
:103D7000DA617B689B69002B07D07B689B691846DA
:103D8000FEF7FDFE7B6800229A617B681B69002BB1
:103D900009D07B685B69002B05D07B685B697A681A
:103DA000126910469847786801F0FCFE00E000BFF9
:103DB0000837BD4680BD80B588B000AFF8600B46BF
:103DC0007A607B81FB68D3F8E83019687A891346FA
:103DD0005B001344DB000B44FB61FB691B78FB7643
:103DE000FB685A69FB695B6813447B61FB7E7A68F8
:103DF00019467869FFF73AF8034618462037BD465A
:103E000080BDFFFFB0B58AB002AFF8600B467A60A4
:103E10007B810023BB610023FB770023BB7700235A
:103E20007B77434B1B681A46002314461D46414BC3
:103E3000009340F6CE63404A2046294624F0E0FC39
:103E40007B68002B01D100236DE04FF028004FF07C
:103E50000001FDF726FBB861BB69002B4FD0BB69A1
:103E6000FA681A60BB6901229A817B681B68002B83
:103E700012D17B68D3F8E83019687A8913465B0061
:103E80001344DB000B447B617B691B78FB777B6908
:103E90005B78BB7701237B777B7F83F00103DBB209
:103EA000002B2ED1BA7FFB7F11461846FEF740FE4D
:103EB0000246BB699A61BB699B69002B23D04FF016
:103EC00010004FF00001FDF7ECFA0246BB69DA6121
:103ED000BB69DB69002B18D07B681B68002B06D1FF
:103EE000BB69DA697B8919467868FFF764FFBB69AB
:103EF0007A685A62BB697A891A84BB6913E000BF89
:103F000004E000BF02E000BF00E000BF0B4B0093E5
:103F10000B4B40F623720849032024F00DFDB869CD
:103F2000FFF714FF002318462037BD46B0BD00BF81
:103F3000DC17FE1F549E0400D49B0400A4A60400BA
:103F4000009D040080B584B000AF78603960002324
:103F5000FB604FF024004FF00001FDF7A2FAF8607B
:103F6000FB68002B11D0FB687A681A60FB6802229C
:103F70009A813868FEF7A1FE0246FB689A61FB68E9
:103F80009B69002B03D0FB6806E000BF00E000BF88
:103F9000F86800F092F8002318461037BD4680BD3F
:103FA000B0B58AB002AFF8600B467A607B8100231F
:103FB000FB610023FB7600237B6100233B612C4BDC
:103FC0001B681A46002314461D462A4B009340F6F0
:103FD0004F73294A2046294624F012FC7B68002BA7
:103FE00001D100233FE04FF024004FF00001FDF726
:103FF00058FAF861FB69002B2CD0FB69FA681A604B
:10400000FB6902229A81798907F1140007F11B02EA
:1040100007F1100300930346786806F057F903464A
:1040200083F00103DBB2002B16D1FB7E79693A697C
:104030001846FEF7E5FD0246FB699A61FB699B693C
:10404000002B0BD0FB697A681A62FB697A899A8324
:10405000FB6908E000BF02E000BF00E000BFF869B4
:1040600000F02BF8002318462037BD46B0BD00BF36
:10407000DC17FE1F549E0400D49B040080B584B05E
:1040800000AF78607B681A687B689B6919461046A8
:10409000FFF758FFF860FB68002B01D1002308E010
:1040A0007B689A8BFB689A837B681A6AFB681A6242
:1040B000FB6818461037BD4680BD80B582B000AFA2
:1040C00078607B68002B1DD07B689B69002B07D034
:1040D0007B689B691846FEF716FE7B6800229A6192
:1040E0007B681B69002B09D07B685B69002B05D0BE
:1040F0007B685B697A68126910469847786801F0B6
:1041000051FD00E000BF0837BD4680BD80B584B0DA
:1041100000AF786039600023FB603B68002B17D04C
:104120004FF024004FF00001FDF7BBF9F860FB6889
:10413000002B0FD0FB687A681A60FB6803229A8113
:104140003868FEF735FE0246FB689A61FB6806E0B8
:1041500000BF00E000BFF86800F0A2F80023184696
:104160001037BD4680BD80B584B000AF78600023B5
:10417000FB607B68002B01D100231AE07B681A6882
:104180007B689B6919461046FFF7C0FFF860FB6823
:10419000002B09D07B689A8BFB689A837B681A6A2C
:1041A000FB681A62FB6804E000BFF86800F078F86A
:1041B000002318461037BD4680BDFFFFB0B58CB058
:1041C00002AFF8600B467A607B810023BB6100235D
:1041D0007B6200233B620023FB772E4B1B681A4651
:1041E000002314461D462C4B009341F2BA032B4A80
:1041F0002046294624F004FB7B68002B01D10023D4
:1042000044E04FF024004FF00001FDF74AF9B86197
:10421000BB69002B31D0BB69FA681A60BB69032205
:104220009A817B681B68002B0ED17B689A687B891A
:104230009B0013441B687B617B691B697B627B6904
:104240005B693B620123FB77FB7F83F00103DBB2F9
:10425000002B14D1396A786AFEF770FD0246BB69FB
:104260009A61BB699B69002B0BD0BB697A681A62A3
:10427000BB697A899A83BB6908E000BF02E000BF8E
:1042800000E000BFB86900F00BF80023184628379B
:10429000BD46B0BDDC17FE1F549E0400D49B040035
:1042A00080B582B000AF78607B68002B1DD07B6842
:1042B0009B69002B07D07B689B691846FEF78BFD36
:1042C0007B6800229A617B681B69002B09D07B68A0
:1042D0005B69002B05D07B685B697A6812691046C0
:1042E0009847786801F05EFC00E000BF0837BD46E3
:1042F00080BD80B487B000AF78607B68002B03D0AE
:104300007B681B6A002B01D1002314E07B681B6AC9
:104310007B617B691B68002B0CD17B693B613B692E
:104320009A687B689B8B9B0013441B68FB60FB684F
:104330001B6A00E0002318461C37BD465DF8047B6D
:10434000704780B487B000AF78607B68002B03D0E3
:104350007B681B6A002B01D1002318E07B681B6A75
:104360007B617B691B68002B10D17B693B613B69DA
:104370009A687B689B8B9B0013441B68FB60FB68FF
:104380001B69FA68D26802FB03F300E000231846B9
:104390001C37BD465DF8047B7047FFFF2DE9B04F29
:1043A0008EB002AF78623962BB611346FB83002393
:1043B000FB627B6A002B07D03B6A002B04D0BB69F1
:1043C000002B01D0012300E000231A4600231446ED
:1043D0001D464E4B009341F291134D4A204629460B
:1043E00024F00EFAFA8B3B6ADB6A9A4234BF01234F
:1043F0000023DBB2DBB2002298469146454B009386
:1044000041F29213424A4046494624F0F9F9BB6909
:104410009B89002B0CBF01230023DBB2DBB20022FF
:104420003B617A613C4B009341F29313384AD7E9E0
:10443000040124F0E5F93B6AD96BFA8B13469B0023
:104440001344DB000B44FB62FB6A0022BB60FA6092
:10445000324B009341F296132D4AD7E9020124F022
:10446000CFF9FB6A1B78002B0CBF01230023DBB2C2
:10447000DBB200223B607A60294B009341F2971334
:10448000234AD7E9000124F0BBF9BB699B69002BE3
:1044900001D1012334E0BB699A69FB6A1B691946A3
:1044A0001046FEF7A7FA034683F00103DBB2002BA8
:1044B00001D0002324E0FB6A012283F82120BB699C
:1044C00093F82030002B04D0BB699A6AFB6A5A61CA
:1044D00003E0BB695A6AFB6A5A61FB6A5B691A4668
:1044E000002392469B460F4B009341F2AA13084AC1
:1044F0005046594624F084F9BB69FA8B1A86012389
:1045000018463037BD46BDE8B08F00BFD8A10400C3
:10451000D49B0400F8A104002CA2040050A20400C3
:1045200068A2040098A204002DE9B04F8EB002AF3B
:1045300078620B46FA617B840023FB627B6A002B66
:1045400004D0FB69002B01D0012300E000231A46B0
:10455000002314461D46624B009341F2B813614A92
:104560002046294624F04CF97A8C7B6A9B6B9A4250
:1045700034BF01230023DBB2DBB200229846914610
:10458000594B009341F2B913564A4046494624F02C
:1045900037F9FB699B89012B0CBF01230023DBB298
:1045A000DBB200223B617A61504B009341F2BA13B7
:1045B0004C4AD7E9040124F023F97B6A996C7A8C80
:1045C00013469B001344DB000B44FB62FB6A002292
:1045D000BB60FA60464B009341F2BD13414AD7E9F4
:1045E000020124F00DF9FB6A1B78032B0CBF012399
:1045F0000023DBB2DBB200223B607A603D4B0093CC
:1046000041F2BE13374AD7E9000124F0F9F8FB69FB
:104610009B69002B01D101235DE0FB699B695B680D
:104620001846FDF771FF03461A46FB6A1B7C1946C4
:104630001046FEF7A1F9034683F00103DBB2002B1D
:1046400001D0002347E0FB69DB691A46002392464C
:104650009B46294B009341F2CB13224A50465946C0
:1046600024F0CEF8FB699B695B681846FDF74CFFA8
:104670000346032B26D801A252F823F08D460000F2
:1046800099460000A9460000B5460000FB69DB69B9
:104690009A68FB6A9A6117E0FB69DB69D3E9022338
:1046A000F96AC1E906230FE0FB69DB699A68FB6AD6
:1046B0009A6109E0FB69DB69D3E90223F96AC1E980
:1046C000062301E0002306E0FB697A8C1A84FB6A6A
:1046D00001229A74012318463037BD46BDE8B08FD9
:1046E000CCA20400D49B0400E4A2040018A304009C
:1046F0003CA3040054A3040088A30400B0B590B008
:1047000002AFF860B9607A6000233B630023FB626C
:1047100000237B610023BB6200237B63FB68002BCB
:104720000CD0BB68002B09D0BB68D3F8C430002B79
:1047300004D07B68002B01D0012300E000231A463F
:10474000002314461D46554B009341F2F113544A81
:104750002046294624F054F8BB68D3F8C4305B6E79
:104760003B63BB68D3F8C4301B6ABB6200237B6326
:104770007BE07A6B13465B0013449B001A463B6B4D
:104780001344FB62FB6A1B79032B53D801A252F836
:1047900023F000BFA5470000ED47000011480000CE
:1047A000C9470000FB6A9B689BB2BA681946F86863
:1047B000FEF7D2FEB861BB69002B5DD0B86900F08E
:1047C00032FE03467B6141E0FB6A9B689BB2BA689C
:1047D0001946F868FFF716FB78627B6A002B4DD00C
:1047E000786A00F02BFE03467B612FE0FB6A9B6832
:1047F0009BB2BA681946F868FFF7D2FBF861FB690B
:10480000002B3DD0F86900F02FFE03467B611DE0D0
:10481000FB6A9B689BB2BA681946F868FFF7CEFC42
:1048200038623B6A002B2DD0386A00F012FE034636
:104830007B610BE0FB6A1B7901931A4B00931A4BC7
:1048400000220021022024F077F81EE007F1140373
:104850001946786824F0ECFA034683F00103DBB2D2
:10486000002B11D17B6B01337B637A6BBB6A9A425D
:10487000FFF47FAF01230DE000BF06E000BF04E0BE
:1048800000BF02E000BF00E000BF7B69184600F0F7
:104890002FFD002318463837BD46B0BD98A304004D
:1048A000D49B0400C0A60400D4A30400B0B58CB00F
:1048B00002AFF860B9607A60FB68002B04D0BB6877
:1048C000002B01D0012300E000231A4600231446E8
:1048D0001D46574B009341F2F423564A2046294681
:1048E00023F08EFF00237B6200233B620023FB61E9
:1048F00087E07B685A687B6A9B0013441B687B6176
:104900007B69002B08D17B6A00934B4B002200216E
:10491000012024F011F87CE0786900F047FD03469F
:10492000032B5FDC022B56DA002B02D0012B29D09F
:1049300058E00023FB76BB681B681B68002B0ED178
:10494000BB681C683B6A9DB2786900F040FD034675
:104950002A462146F868FFF721FD0346FB76FB7ED9
:1049600083F00103DBB2002B08D03B6A0093334B8A
:1049700000220021022023F0DFFF4AE03B6A0133DE
:104980003B623BE00023BB76BB681B681B68002BC7
:104990000ED1BB681C68FB699DB2786900F022FDEE
:1049A00003461A4629462046FFF7BEFD0346BB765E
:1049B000BB7E83F00103DBB2002B08D0FB690093C0
:1049C0001F4B00220021022023F0B6FF21E0FB69EB
:1049D0000133FB6112E01B4B00220021022023F077
:1049E000ABFF0BE0184B009341F23B33114A4FF001
:1049F00000004FF0000123F003FF00BF7B6A01338A
:104A00007B627B689B687A6A9A42FFF472AF0123EB
:104A100009E00E4B00930E4B41F24332054903204F
:104A200023F08AFF002318462837BD46B0BD00BFDB
:104A3000F4A30400D49B040004A404002CA40400E8
:104A400048A4040060A40400F4A00400D8A6040054
:104A5000009D040080B58AB002AFF860B9607A604A
:104A60003B6007F1140300221A605A609A60BB6A27
:104A70007B61FB6ABB6107F1140300933B687A68B2
:104A8000B968F86800F006F8034618462037BD46B6
:104A900080BDFFFF2DE9F04FADF5037D02AF07F5B7
:104AA0000074A4F5E674206007F50070A0F5E870C6
:104AB000016007F50071A1F5EA710A6007F500725F
:104AC000A2F5EC7213600023C7F8503107F5AA7005
:104AD0007C231A4600213AF087FC07F50073A3F502
:104AE000D87200231360101DFC231A4600213AF0EF
:104AF0007BFC07F50073A3F5DA7200231360002333
:104B0000C7F8FC310023C7F8F8310023C7F8F431A7
:104B10000023C7F8F031002387F8EF31C24B1B6840
:104B20001A46002315461E46C04B009341F26A33D5
:104B3000BF4A2846314623F063FE07F50073A3F50C
:104B4000E8731B68002B01D10023F7E24FF014003B
:104B50004FF00001FCF7A5FC024607F50073A3F532
:104B6000DA731A6007F50073A3F5DA731B68002B7C
:104B700007D107F5A873AF4A802118463BF056F8D5
:104B80008EE207F50073A3F5EA731B68002B1ED0B5
:104B900007F50073A3F5DA73186807F50073A3F53A
:104BA000EA7207F50073A3F5E87312681968FFF756
:104BB0007DFE034683F00103DBB2002B07D007F52F
:104BC000A8739D4A802118463BF030F868E207F54B
:104BD0000073A3F5E8731B68186807F50073A3F565
:104BE000DA731C6807F5A8728023D7F8281204F03E
:104BF0007BFA0346236107F50073A3F5DA731B689C
:104C00001B69002B00F0498207F50073A3F5DA73E6
:104C10001B681B69184604F045FD034683F0010339
:104C2000DBB2002B07D007F5A873844A8021184611
:104C30003AF0FCFF34E207F50073A3F5DA731B6862
:104C40001B691B68002B15D107F50073A3F5DA73F8
:104C50001B681B69C7F8E831D7F8E831E033C7F8BB
:104C6000F83107F50073A3F5E8731B681B68DB6A6E
:104C7000C7F8F031D7F8F83100223B627A62704B06
:104C8000009341F2A5336A4AD7E9080123F0B8FD41
:104C9000D7F8F03100229A46934652465B46911867
:104CA00039605B417B60D7E9002312EB0A0843EBD4
:104CB0000B094FF000024FF000034FEA890343EA6B
:104CC00098734FEA880290469946C7E97889D7E9F0
:104CD0007823134317D0D7E97801FCF7E2FBC7F834
:104CE000FC01D7F8F831D7F8FC211A60D7F8F83171
:104CF0001B68002B07D107F5A873524A802118467C
:104D00003AF094FFCCE10023C7F8F43175E00023BA
:104D1000C7F8DC3107F50073A3F5EA731B685A681E
:104D2000D7F8F4319B0013441B68C7F8D831D7F883
:104D3000D8310022BB61FA61434B009341F2B33397
:104D40003B4AD7E9060123F05BFDD7F8D80100F014
:104D50002DFB0346002B4AD1D7F8D80100F037FBD2
:104D6000C7F8DC01D7F8DC319B69002B05D1D7F8F7
:104D7000FC310C33C7F8FC313AE0D7F8DC3193F85A
:104D80002020D7F8FC311A71D7F8DC3193F82030A5
:104D9000002B0CD0D7F8DC319A6AD7F8FC311A60B6
:104DA000D7F8DC315A6AD7F8FC319A6009E0D7F8B5
:104DB000DC315A6AD7F8FC311A60D7F8FC3100228E
:104DC0009A60D7F8FC311B681A4600233A617B6170
:104DD0001E4B009341F2C833154AD7E9040123F072
:104DE0000FFDD7F8FC310C33C7F8FC3100E000BFF1
:104DF000D7F8F4310133C7F8F43107F50073A3F5A0
:104E0000EA731B68002B0AD007F50073A3F5EA7359
:104E10001B689B68D7F8F4219A42FFF478AF00230F
:104E2000C7F8F43181E000BFDC17FE1F549E040078
:104E3000D49B0400A0A40400BCA40400D8A40400D3
:104E4000FCA404000CA5040038A504003CA5040043
:104E500007F50073A3F5EA731B685A68D7F8F431B5
:104E60009B0013441B68C7F8D431D7F8D431002213
:104E7000BB60FA60B44B009341F2D033B34AD7E938
:104E8000020123F0BDFCD7F8D4311B7B032B3FD8A4
:104E900001A252F823F000BFA94E0000C34E00004B
:104EA000F74E0000DD4E000007F50073A3F5DA733E
:104EB0001C68D7F8D40100F08AFA024623695363CC
:104EC0002EE007F50073A3F5DA731C68D7F8D40158
:104ED00000F088FA02462369536221E007F5007367
:104EE000A3F5DA731C68D7F8D40100F086FA0246FD
:104EF0002369136214E007F50073A3F5DA731C68E5
:104F0000D7F8D40100F084FA02462369136207E05F
:104F100007F5A8738E4A802118463AF087FEBFE055
:104F2000D7F8F4310133C7F8F43107F50073A3F56E
:104F3000EA731B68002B12D007F50073A3F5EA7320
:104F40001B685B68002B0AD007F50073A3F5EA73B2
:104F50001B689B68D7F8F4219A42FFF479AF07F5F4
:104F60000073A3F5DA731B681B691B68002B65D1FE
:104F700007F50073A3F5DA731B681B69D3F8C43017
:104F80001B6AC7F8D03107F50073A3F5DA731C6804
:104F90004FF014004FF00001FCF783FA0346636002
:104FA0006368002B7BD007F50073A3F5DA731B68E9
:104FB0005B68D7F8D0111846FCF723FB07F50073A0
:104FC000A3F5DA731B685B681B68002B12D007F52A
:104FD0000073A3F5DA731B685B685B68002B09D16B
:104FE0005C4B00935C4B41F2F0325849032023F0B4
:104FF000A3FC55E007F50073A3F5DA731B68196984
:1050000007F50073A3F5DA731B685A6807F5007398
:10501000A3F5E6731868FFF771FB034683F00103FD
:10502000DBB2002B07D007F5A8734C4A8021184645
:105030003AF0FCFD34E0012387F8EF3197F8EF31C7
:1050400083F00103DBB2002B07D007F5A873444AB5
:10505000802118463AF0EAFD22E007F50073A3F537
:10506000E6731B685B6807F14C021146184623F093
:10507000DFFE034683F00103DBB2002B07D007F508
:10508000A873384A802118463AF0D0FD08E007F5A9
:105090000073A3F5DA731B6850E000BF00E000BFA7
:1050A00007F1500007F5A87300932F4B2F4A4FF4D8
:1050B00080713AF0BBFD07F50073A3F5EC731B6834
:1050C000002B28D007F50073A3F5E4731A460023DC
:1050D000136053609360D360136107F1500207F1CE
:1050E000380311461846FCF7C9F907F1380207F5ED
:1050F0000073A3F5E67311461868FDF75FFF0246DB
:1051000007F50073A3F5EC731B681A6007F1380309
:105110001846FCF768FA07F150030093144B41F26C
:1051200035420A49032023F007FC07F50073A3F575
:10513000DA731B68184600F01DF80023184607F5BF
:105140000177BD46BDE8F08F5CA50400D49B040048
:1051500064A5040078A50400009D04009CA504003B
:10516000C4A50400F0A50400E0A6040014A60400F1
:10517000B09E040080B582B000AF78607B68002BE1
:1051800020D07B685B68002B0CD07B685B6818467E
:10519000FCF70EFB7B685B68184600F003FD7B683C
:1051A00000225A607B681B69002B07D07B681B6953
:1051B000184603F0CAFF7B6800221A61786800F085
:1051C000F1FC00E000BF0837BD4680BD80B582B06D
:1051D00000AF786039607B68002B09D03B68002BFA
:1051E00006D07B685B6819463868FCF777FA00E000
:1051F00000BF0837BD4680BD80B586B002AF78607D
:105200000023FB607B68002B01D1002363E07868FA
:1052100000F0CCF80346032B3ED801A252F823F04D
:10522000315200004B5200007F52000065520000D6
:10523000786800F024F903461846FEF777FA03462B
:10524000184600F0F0F8F86032E0786800F022F9D3
:1052500003461846FEF71AFD0346184600F0EEF81E
:10526000F86025E0786800F020F903461846FEF75C
:105270007AFF0346184600F0ECF8F86018E078680A
:1052800000F01EF903461846FEF7F8FE03461846DE
:1052900000F0EAF8F8600BE07B681B7B0193104B91
:1052A0000093104B00220021022023F045FB00BF99
:1052B000FB68002B01D0FB680DE000BF084B00939A
:1052C000094B41F282420949032023F035FBF8687B
:1052D00000F00EF8002318461037BD4680BD00BF11
:1052E00000A70400D4A30400009D0400D49B040084
:1052F00080B584B002AF78607B68002B4ED07B68AD
:105300009B68002B0CD07B689B681846FCF76BF9F8
:105310007B689B68184600F045FC7B6800229A6019
:10532000786800F043F80346032B2BD801A252F80B
:1053300023F000BF45530000555300007553000093
:1053400065530000786800F042F803461846FEF7FF
:10535000AFF924E0786800F045F803461846FEF7F8
:10536000F5FC1CE0786800F048F803461846FEF7A4
:1053700097FF14E0786800F04BF803461846FEF7F4
:105380009CFE0CE07B681B7B0193064B0093064B55
:1053900000220021022023F0CFFA00E000BF0837EE
:1053A000BD4680BD14A70400D4A3040080B483B01C
:1053B00000AF78607B68002B01D1802301E07B681F
:1053C0001B7B18460C37BD465DF8047B704780B4E4
:1053D00083B000AF78607B6818460C37BD465DF837
:1053E000047B704780B483B000AF78607B68184658
:1053F0000C37BD465DF8047B704780B483B000AFC6
:1054000078607B6818460C37BD465DF8047B7047B2
:1054100080B483B000AF78607B6818460C37BD4617
:105420005DF8047B704780B483B000AF78607B6820
:1054300018460C37BD465DF8047B704780B483B0D6
:1054400000AF78607B6818460C37BD465DF8047B7A
:10545000704780B483B000AF78607B6818460C3723
:10546000BD465DF8047B704780B483B000AF7860C0
:105470007B6818460C37BD465DF8047B704780B4E6
:1054800083B000AF78607B6818460C37BD465DF886
:10549000047B704780B483B000AF78607B681846A7
:1054A0000C37BD465DF8047B704780B483B000AF15
:1054B00078607B6818460C37BD465DF8047B704702
:1054C00080B483B000AF78607B6818460C37BD4667
:1054D0005DF8047B7047B0B586B000AF7860396086
:1054E000396800200A46034612F1400443F10005E2
:1054F000C7E90445D7E90423B2F1FF3F73F1000384
:1055000007D23B69184600F033FBF860FB68002BBC
:1055100001D100231BE03B691A460021F86839F0ED
:1055200063FFFB687A689A60FB683A689A63FB6875
:1055300003F14002FB689A62FB689A6A3B681A446E
:10554000FB681A62FB689A6AFB685A62FB68184635
:105550001837BD46B0BD80B582B000AF78607868BE
:1055600000F020FB00BF0837BD4680BD80B584B089
:1055700000AF7860396039687868FFF7ACFFF86091
:10558000FB68002B01D1002316E07B681B68002B11
:1055900011D17B68D3F8C430BB60BB68D3E9282342
:1055A000FB689A61BB68D3E92823BB68D3F8A830AD
:1055B000D21AFB685A61FB6818461037BD4680BD99
:1055C00080B582B000AF78607868FFF7C4FF00BF95
:1055D0000837BD4680BD80B483B000AF78607B687B
:1055E0009B6818460C37BD465DF8047B704780B455
:1055F00083B000AF786039607B683A689A6000BF1A
:105600000C37BD465DF8047B7047FFFF2DE9B043C2
:10561000AAB002AF786039607B689B68C7F89C309D
:10562000D7F89C30C7F898303B68C7F894307B684F
:105630003A689A60D7F8983093F84430002B20D01D
:10564000D7F8983003F1440207F10C008023802141
:1056500023F004F9C7F89000D7F89030002B0CBF66
:1056600001230023DBB2DBB20022984691461A4B9D
:1056700000934FF48073194A4046494623F0C0F81E
:1056800001E000233B733B7B002B1FD0D7F8943005
:1056900003F1440007F10C028023802123F0DEF89F
:1056A000C7F88C00D7F88C30002B0CBF01230023E7
:1056B000DBB2DBB200221C461546074B009340F2DA
:1056C0000D13064A2046294623F09AF800BFA0375A
:1056D000BD46BDE8B08300BF60A7040028A7040052
:1056E00080B584B000AF786023F048F8F86023F00C
:1056F0003EF802467B685A63FB68002B03D0FB68C8
:1057000003F5806300E000237A68D3607B684FF084
:10571000FF32DA6100BF1037BD4680BD80B586B06C
:1057200002AFF860B9607A60FB70FB68002B0DD0A7
:10573000FB78002B01D0074A00E0074A7B68009302
:105740001346064AB968F8683AF070FA00BF103795
:10575000BD4680BD6CA7040070A7040078A70400B4
:1057600080B584B000AFB9607A601A460346FB7317
:105770001346BB73FB7B012B25D9FB7B03F0020394
:10578000002B0DD0214B00220021042023F0D4F85F
:10579000BB7B1F4A7968B868FFF7C0FF002330E081
:1057A000FB7B03F00403002B0DD01A4B00220021D9
:1057B000042023F0C1F8BB7B154A7968B868FFF76D
:1057C000ADFF00231DE0FB7B072B07D9BB7B104AF5
:1057D0007968B868FFF7A2FF002312E0FB7B03F0B3
:1057E0000203002B0CD0FB7B03F00103002B07D13D
:1057F000BB7B094A7968B868FFF790FF002300E097
:10580000012318461037BD4680BD00BF94A7040091
:10581000F0A7040008A8040038A8040080B483B0EE
:1058200000AF0346FB71FB797B2B05D997F9073055
:10583000002B01DB012300E0002318460C37BD4696
:105840005DF8047B704780B582B000AF0346FB7102
:10585000FB797B2B01D1002304E0FB791846FFF78D
:10586000DDFF034618460837BD4680BD80B586B0CB
:1058700002AFF860B9607A603B60BB68DB43FA68EE
:105880009A4209D9BB680093FB68064A3968786870
:105890003AF0CCF9012300E0002318461037BD464A
:1058A00080BD00BF58A8040080B400AF4FF0FF33A4
:1058B0001846BD465DF8047B70472DE9B00F89B0EE
:1058C00000AFC7E90401C7E90223D7E90401D7E91A
:1058D000022310EB020A41EB030B1AF1FF384BF1E4
:1058E000FF39D7E902230021544261EB030508EA9E
:1058F00004033B6009EA05037B60D7E90034C7E98C
:105900000634D7E90623104619462437BD46BDE8BC
:10591000B00F704780B586B002AF786039603968E3
:10592000786822F072FDF860FB68002B0AD00D4BFE
:1059300001221A700C4AFB6813600C4A3B68136022
:1059400001230AE03B6801937B680093084B002227
:105950000021012022F0F0FF002318461037BD4639
:1059600080BD00BFE017FE1FE417FE1FFC17FE1FDF
:1059700084A8040080B588B004AFF860B9607A608C
:10598000FB68002B14D07B68002B11D0FA687B6871
:105990009A420DD00F4B02221A70FB680E4A136018
:1059A000BB680E4A13607B680D4A136001230CE04C
:1059B0007B680293BB680193FB680093094B00224C
:1059C0000021012022F0B8FF002318461037BD4601
:1059D00080BD00BFE017FE1FF017FE1FF417FE1F6B
:1059E000F817FE1FACA8040080B483B000AF786045
:1059F000012318460C37BD465DF8047B7047FFFF56
:105A000080B582B000AF03463960FB71FB79002B93
:105A100009D13B681A683B685B6819461046FFF776
:105A200079FF034616E0FB79012B0AD13B68186821
:105A30003B6859683B689B681A46FFF79BFF034623
:105A400008E0FB79022B04D1044B03221A700123D6
:105A500000E0002318460837BD4680BDE017FE1F52
:105A600080B500AF064B1B78012B04D1054B1B689A
:105A7000184622F0EAFC024B00221A7000BF80BDDB
:105A8000E017FE1FE417FE1F80B582B000AF7860FC
:105A9000144B1B78002B07D1134B0022002102204E
:105AA00022F04AFF002319E00E4B1B78012B07D18F
:105AB0000E4B1B687968184622F0DAFC03460DE0AD
:105AC000084B1B78022B05D1094B1B687868984757
:105AD000034603E0786822F014FD034618460837B1
:105AE000BD4680BDE017FE1FE0A80400E417FE1FBE
:105AF000F017FE1F80B582B000AF78607B68002B86
:105B000006D1164B00220021022022F015FF21E0D1
:105B1000134B1B78002B06D1124B002200210220D0
:105B200022F00AFF16E00E4B1B78012B06D10E4B1C
:105B30001B687968184622F0A9FC0BE0084B1B781B
:105B4000022B04D1094B1B687868984702E07868FB
:105B500022F02EFD0837BD4680BD00BF60A90400BD
:105B6000E017FE1F90A90400E417FE1FF817FE1FA0
:105B700080B582B000AF78607B68002B07D1084BFE
:105B800000220021022022F0D7FE01237B607868EA
:105B9000FFF77AFF034618460837BD4680BD00BFB1
:105BA000D4A9040080B582B000AF78607868FFF7B0
:105BB000A1FF00BF0837BD4680BDFFFF2DE9B04FF4
:105BC0008CB002AFF860C7E90023FB687B624FF03E
:105BD00000024FF00103C7E90623FB681B68002B96
:105BE00003D0FB681B68012B01D1012300E00023D7
:105BF0001A46002392469B46274B00934FF4A3730B
:105C0000264A5046594622F0FBFDF868FFF7ECFEA5
:105C1000034683F00103DBB2002B01D0012335E002
:105C2000786A00F0CFF978617B69002B24D0D7E93E
:105C30001223D7E90601904271EB03031ED3D7E983
:105C40000601D7E91223B0EB020861EB0309D7E99B
:105C50000023904579EB030310D3D7E90001D7E97E
:105C60001223841841EB03057B69D3E90623A24282
:105C7000AB4105D3012309E000BF02E000BF00E013
:105C800000BF0749786A03F09FFD002318462837B4
:105C9000BD46BDE8B08F00BF3CAA040004AA0400C2
:105CA000A8AA0400B0B58EB002AFF860C7E900231F
:105CB000FB68BB624FF000024FF00103C7E9082305
:105CC000FB681B68002B03D0FB681B68012B01D10C
:105CD000012300E000231A46002314461D46304BE2
:105CE00000934FF4B9732F4A2046294622F088FDCD
:105CF000F868FFF779FE034683F00103DBB2002B5F
:105D000001D0012348E007F1100301930023009321
:105D1000D7E90023F86800F001F9034683F0010396
:105D2000DBB2002B2ED1D7E90001D7E9082390423E
:105D300071EB030328D2D7E90423D7E90801904285
:105D400071EB030320D3D7E90023F86800F02EF8A5
:105D5000F862D7E904233B68D31AFA6A1344FB615B
:105D600002E0FB6A0133FB62FA6AFB699A4203D2E2
:105D7000FB6A1B78002BF4D1FA6AFB699A4205D0C2
:105D8000012309E000BF02E000BF00E000BF0649B8
:105D9000B86A03F019FD002318463037BD46B0BD80
:105DA0003CAA040004AA0400A8AA0400B0B58AB062
:105DB00002AFF860C7E90023FB68FB61FB681B6862
